:020000021000EC
:10000000000004205D4105009541050051240500D4
:10001000994105005D2405006324050000000000EF
:10002000000000000000000000000000B5BE01005C
:10003000A1410500000000004FBF01005FBF0100AB
:100040009180050089D90400A7410500A74105005A
:10005000A7410500A7410500A7410500A7410500EC
:10006000A7410500A7410500A7410500A7410500DC
:10007000A7410500B5840500A74105001DE6040061
:10008000A7410500A7410500A7410500A7410500BC
:10009000A7410500A7410500A7410500A7410500AC
:1000A000A7410500A7410500A7410500A74105009C
:1000B000A7410500A7410500000000000000000066
:1000C000A7410500A7410500A7410500A74105007C
:1000D000A7410500A7410500A7410500A74105006C
:1000E000A7410500A7410500A74105000000000049
:1000F00000000000A741050000000000A741050026
:1001000010B5054C237833B9044B13B10448AFF351
:1001100000800123237010BD90110020000000001A
:10012000EC85060008B5034B1BB103490348AFF348
:10013000008008BD0000000094110020EC8506003E
:10014000154B002B08BF134B9D46A3F5803A0021A9
:100150008B460F461348144A121A4BF069FB0F4B9B
:10016000002B00D098470E4B002B00D09847002062
:10017000002104000D000D48002802D00C4842F078
:100180000BFF4AF055FE200029000DF05DFF42F004
:1001900000FF00BF00000800000004200000000075
:1001A000A5DF010090110020901A0120992F050071
:1001B0000000000010B5034B0360044603F0D0FBC1
:1001C000204610BDEC0C060010B50446FFF7F2FF08
:1001D00020460C2143F0FEF8204610BD10B58B6878
:1001E00004460BF09DFC204610BD000008B507EE4C
:1001F000901AF5EE407AF1EE10FA2DED048B09EE2F
:10020000100A08EE902A09EE903AB7EE008A2AD139
:1002100018EE101A29483FF00CF9294BD3ED007A5B
:1002200039EE279A78EE497A17EE901A25483FF072
:1002300000F9F5EE409AF1EE10FA28D14FF07E5118
:1002400021483FF0F6F8214BD3ED007A78EEA78AEB
:1002500078EE687A17EE901ABDEC048B1C48BDE866
:1002600008403FF0E6B8F4EE487AF1EE10FAE0D13B
:10027000184B1248D3ED007A39EE279A78EE497A76
:1002800017EE901A3FF0D5F818EE101ACEE7F4EEFC
:10029000489AF1EE10FA0ED10F4B0B48D3ED007ACD
:1002A00078EEA78A78EE687A17EE901A3FF0C1F8D8
:1002B0004FF07E51D0E7BDEC048B08BDE412002066
:1002C000B0110020101300208C120020BC1100205F
:1002D000B8120020AC110020B811002038B5364B00
:1002E000364CD3ED006A364B364DD3ED007A364BA3
:1002F000364993ED007A364B76EEE76A26EE877A3A
:10030000C5ED006A83ED007A324BD3ED005A324BD3
:10031000D3ED007AE6EEA57AC3ED007A2F4B93ED8C
:10032000006A2F4B67EE867A94ED006AC3ED007A7F
:1003300076EEC66A77EE277A86EEA56A9FED297A71
:1003400081ED006A2849D1ED006A284966EE266AE7
:1003500077EEA67AC1ED006AF4EEC77AF1EE10FAF4
:10036000DFED236A1ED4F4EE667AF1EE10FAC8BF10
:10037000F0EE667A87EEA67A1E4BB5EEC07AF1EE05
:1003800010FA83ED007A10D8D8BFB1EE477A002377
:1003900017EE102A194617EE100AFFF727FF2B68F1
:1003A000236038BDF0EE477AE4E7F8DBD8BFB1EE62
:1003B000477A4FF07E53EBE704020020E81100205B
:1003C000C4110020E411002014120020DC110020D0
:1003D00018120020D8110020E01100200C1200207B
:1003E000101200200000C8C20412002008120020D1
:1003F0000000C842B411002070B510200BF058FC6A
:10040000304E314C314D014630463FF05AF82246CD
:100410002946304642F0BBFD11200BF049FC2C4E22
:10042000014630463FF04DF822462946304642F01C
:10043000AEFD0E200BF03CFC264E014630463FF050
:1004400040F822462946304642F0A1FD0F200BF02D
:100450002FFC214E014630463FF033F829461F4D10
:100460002246304642F093FD1D491E4E284603F0B9
:1004700003FD28461C4D1D49224642F088FD4023BD
:100480000A221B49284603F01DFD2846194D224625
:10049000314642F07CFD40230A221749284603F0EA
:1004A00011FD2846154D2246314642F070FD284682
:1004B00003F0CAFB224628461149BDE8704042F0CD
:1004C00066BD00BF8C120020000200200BF5040066
:1004D000B8120020E4120020101300208012002027
:1004E000F40C0600B5010100681200200D3E010069
:1004F000190D0600741200203E0D06001C1200208B
:10050000F93A01002DE9F0412A4C0025B5F57A7F32
:1005100036D0204600F05DFD0028F7D0204600F0E0
:1005200043FD0028F2D0244EDFF8B080234F33463D
:1005300042463946204600F003FD214B214A22491C
:10054000204600F0C9FC214B98ED007AD3ED007AEB
:1005500077EE877A97ED007AC3ED007A1C4BD3EDE6
:10056000007A77EE877A96ED007AC3ED007A194B20
:10057000D3ED007A77EE877A0135C3ED007AC5E7CF
:10058000124BDFED157AD3ED006A86EEA77A83ED84
:10059000007A0F4BD3ED006A86EEA77A83ED007ADE
:1005A0000C4BD3ED006A86EEA77A83ED007ABDE8A6
:1005B000F08100BF50130020FC110020F411002036
:1005C000D4110020CC110020D0110020F011002007
:1005D000F81100200012002000007A44EC110020E5
:1005E000F0B5022195B04C4801F0D8F820B94B493C
:1005F0004B480BF093F8FEE7FFF784FF494B4A495D
:100600004A4800221A603EF022FF474948483EF01F
:100610001EFF454947483EF01AFF434946483EF011
:1006200016FF4FF07E5141483EF003FF4FF07E51E0
:100630003F483EF0FEFE4FF07E513E483EF0F9FE50
:100640003D484FF07E513EF0F4FE3C4B1C68236861
:1006500020469B68984720B9394931480BF05EF82D
:10066000FEE723683749DB6B374D20469847236800
:1006700034499B6C2046984723683449DB6A2046FE
:1006800098473349314803F015FC32492F4803F0AD
:1006900011FC23682D491B6D20469847236820468E
:1006A0005B6D984701AE2F46236821461B6F30468D
:1006B00098479DF808302B719DF809306B719DF8B3
:1006C0000A30AB719DF80B30EB719DF80C302B723A
:1006D0009DF80D306B729DF80E30AB729DF80F30A7
:1006E000EB729DF810302B730D23F25CFA5401333A
:1006F0004B2BFAD19DF84F3087F84B30304603F042
:10070000FBF9284603F056FA0028CDD012490448D8
:100710000BF004F815B0F0BD50130020630D060077
:1007200040210020C411002017B751388C1200203E
:10073000B8120020E412002010130020A03306009D
:100740007D0D0600AE0D06001C1200208012002058
:100750006812002074120020B50D0600FFF740BF9C
:100760002DE9F84386482DED028B00F032FC00287D
:1007700000F0F680824800F017FC002800F0F080BE
:10078000804D814E814F824C7D48334629463A4602
:1007900000F0D6FB22467F497F4B794800F09CFB56
:1007A0007E4BD7ED007A93ED007A7D4B77EEC77ADA
:1007B00093ED007AC7ED007AD5ED007A794B77EEAC
:1007C000C77A93ED007AC5ED007AD6ED007A77EE20
:1007D000C77AC6ED007A0BF097FA07EE900A724BD3
:1007E000DFED726A724A2068F8EE677A2E46C3ED32
:1007F000007A704B93ED007AC3ED007A37EEC77A3A
:10080000254687EE268A82ED008A48F009FF56A326
:10081000D3E9002348F0A6FD49F02AFA07EE900A32
:10082000F5EEC07AF1EE10FA206002DC0DD8F1EEA0
:10083000677A17EE900A48F0F3FE4DA3D3E9002340
:1008400049F0C2F908B100232B60524CD4ED007A74
:10085000F5EEC07AF1EE10FA02DC0DD8F1EE677A0F
:1008600017EE900A48F0DCFE41A3D3E9002349F0DB
:10087000ABF908B100232360474CD4ED007AF5EEC4
:10088000C07AF1EE10FAF7EE008A5FDDF4EEE87A56
:10089000F1EE10FAACBF012300230BB1C4ED008AC6
:1008A000306848F0BDFE064618EE100A01F1004718
:1008B00048F0B6FE02460B463046394648F008FF7F
:1008C0003D4E80463068894648F0AAFE02460B46F7
:1008D0004046494648F046FD49F0CAF995ED007A90
:1008E000D4ED007A354BC7EE277A186008EE100A6F
:1008F00017EE900A49F0DCFBDFED317A07EE100AC3
:1009000067EE277A17EE900A48F08AFE1AA3D3E919
:10091000002349F007F849F0ABF92A4B18602A4B3D
:1009200093ED007A294B07EE900A28EE078A78EEBD
:10093000C78A1B68A7EEA88A012B86ED008A0FD113
:10094000BDEC028BBDE8F843FFF7C8BCBFEE007AF0
:10095000F4EEC77AF1EE10FA94BF012300239CE76E
:10096000BDEC028BBDE8F883FCA9F1D24D62603F7B
:100970007B14AE47E17A843F6E861BF0F921094073
:1009800050130020F4110020FC110020EC11002075
:10099000CC110020D0110020D4110020F011002033
:1009A000F8110020001200204C130020002474498C
:1009B000D811002048130020C4110020C8110020C5
:1009C00000003443C011002008020020441300201E
:1009D000B0B594B0E74802AF03F00CF9002800F07E
:1009E0007981E54803F03AF8002800F07381E24885
:1009F00003F020F8E14B1860C31D23F007036D4698
:100A0000ADEB030D02AC02462146DB4803F03CF897
:100A1000002800F05E81214607F130000AF035FF22
:100A2000202107F130000BF077F80322034607F18D
:100A3000300107F13C000BF073F807F13C000BF0BC
:100A40009BF8CF4B186007F13C000AF0D3FE202141
:100A500007F130000BF060F807F13001421C07F19C
:100A60003C00FFF7BBFB07F13C0107F130000AF047
:100A700069FF07F13C000AF0BDFE202107F13000BC
:100A80000BF04AF80322034607F1300107F13C005E
:100A90000BF046F807F13C000BF06EF8B94B18600C
:100AA00007F13C000AF0A6FE202107F130000BF010
:100AB00033F807F13001421C07F13C00FFF78EFBD1
:100AC00007F13C0107F130000AF03CFF07F13C0060
:100AD0000AF090FE202107F130000BF01DF80322F0
:100AE000034607F1300107F13C000BF019F807F15C
:100AF0003C000BF041F8A44B186007F13C000AF0F1
:100B000079FE202107F130000BF006F807F13001E3
:100B1000421C07F13C00FFF761FB07F13C0107F1C4
:100B200030000AF00FFF07F13C000AF063FE2021BD
:100B300007F130000AF0F0FF0322034607F130010D
:100B400007F13C000AF0ECFF07F13C000BF008F85D
:100B50008E4B186007F13C000AF04CFE202107F193
:100B600030000AF0D9FF07F13001421C07F13C00C8
:100B7000FFF734FB07F13C0107F130000AF0E2FE19
:100B800007F13C000AF036FE202107F130000AF0A0
:100B9000C3FF0022034607F1300107F13C000AF0D1
:100BA000BFFF07F13C000AF0E7FF794B186007F13F
:100BB0003C000AF01FFE202107F130000AF0ACFFD4
:100BC00007F13001421C07F13C00FFF707FB07F17A
:100BD0003C0107F130000AF0B5FE07F13C000AF0D5
:100BE00009FE202107F130000AF096FF002203469B
:100BF00007F1300107F13C000AF092FF07F13C00D9
:100C00000AF0BAFF634B186007F13C000AF0F2FDEE
:100C1000202107F130000AF07FFF07F13001421C6C
:100C200007F13C00FFF7DAFA07F13C0107F1300069
:100C30000AF088FE07F13C000AF0DCFD202107F1F4
:100C400030000AF069FF0022034607F1300107F186
:100C50003C000AF065FF07F13C000AF08DFF4E4BA7
:100C6000186007F13C000AF0C5FD202107F13000B3
:100C70000AF052FF07F13001421C07F13C00FFF778
:100C8000ADFA07F13C0107F130000AF05BFE07F115
:100C90003C000AF0AFFD202107F130000AF03CFFD4
:100CA0000022034607F1300107F13C000AF038FF4B
:100CB00007F13C000AF060FF384B186007F13C0078
:100CC0000AF098FD364B012207F130001A600AF055
:100CD00091FDAD46334B0222196838460AF042FEB8
:100CE000394607F10C000AF023FE2F4907F10C00EA
:100CF0000AF0BAFE2D4B02221968044607F11800CB
:100D00000AF030FE07F1180120460AF0A1FE26493C
:100D10000AF0AAFE264B0546186848F081FC00221E
:100D2000244B48F0FFFD022402460B46009407F1D5
:100D300024000AF034FE07F1240128460AF088FE58
:100D400019490AF091FE1C4B0546186848F068FCEA
:100D50000022184B48F0E6FD009402460B4607F1CE
:100D600030000AF01CFE07F1300128460AF070FE40
:100D700024E000BF1C120020741200203C1300204D
:100D8000141200200C120020041200204013002036
:100D9000BC110020B8110020B0110020AC110020BF
:100DA00044130020C4110020AF770600B4110020C6
:100DB0001812002000005940101200201A490AF0B1
:100DC00053FE1A4B0546186848F02AFC0022184BBF
:100DD00048F0A8FD009402460B4607F13C000AF0DB
:100DE000DEFD07F13C0128460AF032FE01461148BB
:100DF00003F076F807F13C000AF0FCFC07F1300044
:100E00000AF0F8FC07F124000AF0F4FC07F11800DE
:100E10000AF0F0FC07F10C000AF0ECFC38460AF08E
:100E2000E9FC4837BD46B0BDAF7706000812002088
:100E3000000059406812002008B5074B1A68012AC3
:100E400004D1064A0021116000221A60FFF788FCD5
:100E5000BDE80840FFF7BCBD40130020E0110020B2
:100E600070472DE9F041804617461C460E4629B3CF
:100E7000531E1F2B22D82068257903682946DB6A78
:100E800098472068036841461B68984720680368B4
:100E90005B6B984790B9206803683A462946DB6B3C
:100EA00098473546C7B2AB1B9BB29F420AD9206810
:100EB00003685B69984705F8010BF4E74FF0FF30D2
:100EC000BDE8F0810020FBE70B6803604B684360DE
:100ED0008B6883607047000070B58AB00E4600F1E1
:100EE000380101A81C46154601F0C6F8BDF90610E8
:100EF0009FED127A4B4207EE903AF8EEE77ABDF991
:100F0000041067EE877A4B42C6ED007A07EE903AFE
:100F1000F8EEE77ABDF9083067EE877AB0FA80F02C
:100F2000C5ED007A07EE903AF8EEE77A400967EEF1
:100F3000877AC4ED007A0AB070BD00BF00000039A6
:100F400070B58AB00E4600F1380101A81C4615465E
:100F500001F092F8BDF912109FED127ABDF914302C
:100F6000494207EE901AF8EEE77ABDF91010C7EE85
:100F7000876A4942B0FA80F0400907EE901AF8EE0D
:100F8000E77AC6ED006AC7EE876A07EE903AF8EE98
:100F9000E77AC5ED006AC7EE876AC4ED006A0AB059
:100FA00070BD00BF6F12834113B5044600F13801D4
:100FB0000DF1060000F0DFFFBDF80630B4F8CC00FC
:100FC000184300F40040C3F30E03A4F8CC3002B081
:100FD00010BD13B5044600F138010DF1060000F014
:100FE000CAFFBDF80630B4F8CC00184300F48040C6
:100FF00023F48043A4F8CC3002B010BD0000000000
:1010000000B58FB00EAB002203F8342D012100F1A2
:101010003802184601F0E0FC9DF8063001209840A7
:1010200048F0ECFA04A3D3E9002348F051FB48F060
:101030001FFE0FB05DF804FBF6285C8FC2F5D83FA9
:1010400010B58EB00EAB012403F8344D00F1380218
:101050002146184601F0C0FC9DF8060004FA00F095
:1010600048F0CCFA04A3D3E9002348F031FB48F060
:10107000FFFD0EB010BD00BFF6285C8FC2F5D83F53
:1010800073B50E4600F1A00168461C46154601F0F6
:10109000E3FFBDF9003007EE903ABDF90230F8EEFB
:1010A000E77AB0FA80F0C6ED007A07EE903ABDF923
:1010B0000430F8EEE77A4009C5ED007A07EE903A81
:1010C000F8EEE77AC4ED007A02B070BD10B50446C0
:1010D000A03002F007F8B4F8C80000F4807010BD2A
:1010E0007FB500F1A00101A801F077FF9DF806206F
:1010F000072A9BBF034B03EB82030020186807B04D
:101100005DF804FBD00D060030B59FB04FF480733E
:101110004FF48470ADF800304FF00113012540F218
:1011200001120193ADF812000023ADF8460001A8AA
:101130000C46ADF808508DF81030ADF814208DF83D
:101140004450ADF848208DF84A3000F0A2FE80B936
:1011500022462946042001F061F850B922460221B6
:1011600004A801F0D3FA20B922460221684600F013
:101170001FFF1FB030BD7FB5002301A88DF80530DB
:1011800001F0F8FE07B05DF804FB0AF0CBBD08B52E
:1011900001210D200AF022FE00210D200AF062FE3E
:1011A00064200AF0BDFD01210D200AF05BFE6420E1
:1011B0000AF0B6FDF0E7F8B5074615461E460C46A0
:1011C000E9B1531E1F2B1AD8306831790368DB6AE6
:1011D00098473068036839461B689847254430684B
:1011E000A542036804D01B6814F8011B9847F6E772
:1011F0005B6B9847003018BF01204042F8BD4FF0AC
:10120000FF30FBE7006870470022C26070470C3077
:101210007047CB68C3600BB15B6818477047C36801
:101220000BB19B681847704730B5C46887B00D464E
:10123000002C00F0968201F12203222B00F2828220
:10124000DFE813F070026002500240023002200218
:1012500010020002F001E001D00190018001700154
:101260006001500140013001200110010001F00037
:10127000E000D000C000B000A0009000800070002E
:1012800060005000400023008F02BE4903A80AF00E
:10129000FCFA0A224FF0FF3168460AF015FB694656
:1012A00003A80AF0D5FBB8490AF0DEFB0146204648
:1012B0000AF02AFA68460AF09DFA03A80AF09AFA98
:1012C000FFF765FFAF4903A80AF0DFFA0A226FF0C3
:1012D000010168460AF0F8FA694603A80AF0B8FB6B
:1012E000AA49E1E7A74903A80AF0CFFA0A226FF05A
:1012F000020168460AF0E8FA694603A80AF0A8FB6A
:10130000A349D1E79F4903A80AF0BFFA0A226FF068
:10131000030168460AF0D8FA694603A80AF098FB68
:101320009C49C1E7974903A80AF0AFFA0A226FF077
:10133000040168460AF0C8FA694603A80AF088FB67
:101340009549B1E78F4903A80AF09FFA0A226FF086
:10135000050168460AF0B8FA694603A80AF078FB66
:101360008E49A1E7874903A80AF08FFA0A226FF095
:10137000060168460AF0A8FA694603A80AF068FB65
:10138000874991E77F4903A80AF07FFA0A226FF0A4
:10139000070168460AF098FA694603A80AF058FB64
:1013A000804981E7774903A80AF06FFA0A226FF0B3
:1013B000080168460AF088FA694603A80AF048FB63
:1013C000794971E76F4903A80AF05FFA0A226FF0C2
:1013D000090168460AF078FA694603A80AF038FB62
:1013E000724961E7674903A80AF04FFA0A226FF0D1
:1013F0000A0168460AF068FA694603A80AF028FB61
:101400006B4951E75F4903A80AF03FFA0A226FF0DF
:101410000B0168460AF058FA694603A80AF018FB5F
:10142000644941E7574903A80AF02FFA0A226FF0EE
:101430000C0168460AF048FA694603A80AF008FB5E
:101440005D4931E74F4903A80AF01FFA0A226FF0FD
:101450000D0168460AF038FA694603A80AF0F8FA5E
:10146000564921E7474903A80AF00FFA0A226FF00C
:101470000E0168460AF028FA694603A80AF0E8FA5D
:101480004F4911E73F4903A80AF0FFF90A226FF01C
:101490000F0168460AF018FA694603A80AF0D8FA5C
:1014A000484901E7374903A80AF0EFF90A226FF02B
:1014B000100168460AF008FA694603A80AF0C8FA5B
:1014C0004149F1E62F4903A80AF0DFF90A226FF03B
:1014D000110168460AF0F8F9694603A80AF0B8FA5B
:1014E0003A49E1E6274903A80AF0CFF90A226FF04A
:1014F000120168460AF0E8F9694603A80AF0A8FA5A
:101500003349D1E61F4903A80AF0BFF90A226FF058
:10151000130168460AF0D8F9694603A80AF098FA58
:101520002C49C1E6174903A80AF0AFF90A226FF067
:10153000140168460AF0C8F9694603A80AF088FA57
:101540002549B1E60F4903A80AF09FF90A226FF076
:10155000150168460AF0B8F9694603A80AF078FA56
:101560001E49A1E6074903A80AF08FF90A226FF085
:10157000160168460AF0A8F9694603A80AF068FA55
:10158000174991E6F00D0600F80D0600090E060059
:10159000230E0600380E0600490E0600690E0600EE
:1015A000880E0600AD0E0600C00E0600E00E060016
:1015B000F20E06000A0F0600240F06004B0F06006D
:1015C0006F0F0600820F0600970F0600AB0F060094
:1015D000CC0F0600E30F0600F50F0600081006000A
:1015E00016100600604903A80AF04FF90A226FF0AE
:1015F000170168460AF068F9694603A80AF028FA54
:101600005A4951E6584903A80AF03FF90A226FF0F7
:10161000180168460AF058F9694603A80AF018FA52
:10162000534941E6504903A80AF02FF90A226FF006
:10163000190168460AF048F9694603A80AF008FA51
:101640004C4931E6484903A80AF01FF90A226FF015
:101650001A0168460AF038F9694603A80AF0F8F951
:10166000454921E6404903A80AF00FF90A226FF024
:101670001B0168460AF028F9694603A80AF0E8F950
:101680003E4911E6384903A80AF0FFF80A226FF034
:101690001C0168460AF018F9694603A80AF0D8F94F
:1016A000374901E6304903A80AF0EFF80A226FF043
:1016B0001D0168460AF008F9694603A80AF0C8F94E
:1016C0003049F1E5284903A80AF0DFF80A226FF053
:1016D0001E0168460AF0F8F8694603A80AF0B8F94E
:1016E0002949E1E5204903A80AF0CFF80A226FF062
:1016F0001F0168460AF0E8F8694603A80AF0A8F94D
:101700002249D1E5184903A80AF0BFF80A226FF070
:10171000200168460AF0D8F8694603A80AF098F94B
:101720001B49C1E5104903A80AF0AFF80A226FF07F
:10173000210168460AF0C8F8694603A80AF088F94A
:101740001449B1E5084903A80AF09FF80A2229467E
:1017500068460AF0B9F8694603A80AF079F90E4913
:10176000A2E507B030BD00BFF00D06003410060042
:101770005410060061100600721006008210060068
:101780009B100600B6100600CE100600E6100600FC
:10179000001106002011060039110600F8B50446B4
:1017A0008068304F0368DB690E46984704F12802D1
:1017B00068230121DFF8B4C0E2631E222A4884F8BE
:1017C000383084F84110A4F846200025A26884F837
:1017D0002C3084F8A110102304F13001012EC4F83C
:1017E00070C06767A067A564A26284F8A030C4E9EE
:1017F0002BC7C4F8B400C4F8A410226384F83430B2
:1018000015D004F13807384601F0DCF901460546E9
:101810002046FFF709FD236839469B6A2046984712
:1018200005436DB229462046FFF7FEFC9EB104F148
:10183000A006304601F017FB284341B22046FFF7CF
:10184000F3FC236831465B6A20469847054601460B
:101850002046FFF7E9FCB5FA85F0400984F820003E
:10186000F8BD00BFB71101008B110100630E01002C
:1018700010B500210446FFF7C7FC204610BD00004C
:1018800070B5094B03600025FF2304460371C56052
:1018900010300E46FFF7ECFF0B2384F820506562F2
:1018A000A6602371204670BDF011060010B50446F5
:1018B000FFF7B5FC204610BD10B5044B044640F8B8
:1018C000103BFFF7F3FF204610BD00BFF0110600EC
:1018D000884238B5044606D00D46FFF7A0FC2946DD
:1018E0002046FFF796FC204638BD08B5FFF78FFC71
:1018F0000068003018BF012008BD000010B5044684
:10190000FFF7F3FF28B940F202220649064840F0EB
:1019100051FFE068FFF776FC03462046BDE8104023
:10192000184700BFCE110600D911060008B5FFF711
:10193000E5FF08BD38B50C4C0C4D00224FF4027188
:1019400020463FF0D3FE2046094C0A492A4641F082
:101950001EFB09492046FFF793FF2A462046074908
:10196000BDE8384041F013BB2014002000020020E5
:10197000501300201B170500B8160020B9180100ED
:101980004A780B7843EA02230380CA788B7843EACB
:10199000022343804A790B7943EA0223838070470C
:1019A00082B00388ADF800304388ADF802308388F8
:1019B000ADF8043091F8272091F824305B00E2B9AB
:1019C00002AA134433F8083C038091F8253002AA98
:1019D00002EB430391F8282033F9083C9AB943807D
:1019E00091F8263002AA02EB430391F8292033F93B
:1019F000083C52B9838002B0704702AA134433F8FE
:101A0000083C5B42E0E75B42E9E75B42F2E748B152
:101A1000836B3BB1C36B2BB1006CB0FA80F0400913
:101A2000404270474FF0FF3070472DE9F0480446C0
:101A30000025231ADBB2994202D82846BDE8F08877
:101A400014F8013B012B0FD006D3022B11D0202B11
:101A500014D06FF00705ECE7D2E9006746F0010B00
:101A6000BC46C2E900BCE4E7D2E9006746F0020BDD
:101A7000F6E7D2E9006746F0040BF1E7D2E9006728
:101A8000B34647F0010CECE710B588B104788C42FE
:101A90003FBF0170197841F001011970017891423E
:101AA00004D902701A7842F002021A70002001E094
:101AB0004FF0FF3010BD2DE9F0418046A0B0184630
:101AC0000D4616461C46FFF7A2FF50BB49B3637A8A
:101AD0000BB948F08008E27A6368A76B3244694624
:101AE0004046B84794F84730A072012B0CBF4FF422
:101AF000E1700220236C6168984794F90A0098B954
:101B00002A46511B8BB29E4202D820B0BDE8F0811C
:101B1000E37A20AF3B440B4413F8803C02F8013BCE
:101B2000EFE74FF0FF30F0E76FF00100EDE7000066
:101B300007B5034601220DF107011B20FFF7BBFF8C
:101B400048B99DF80730C3F38203013BDBB2022B97
:101B50009CBF024AD05603B05DF804FB1C1206007D
:101B600013B5002304460846ADF80430FFF74FFFD5
:101B7000B8B90B46022201A94020FFF79CFF70B9BB
:101B80009DF80430DA09A270C3F3021203F00F03C8
:101B900023709DF80530627003F00303E37002B018
:101BA00010BD4FF0FF30FAE713B500230446084696
:101BB000ADF80430FFF72BFFE8B90B46022201A96C
:101BC0004220FFF778FFA0B99DF80430DA09A2702F
:101BD000C3F380126271C3F3011203F00F03237089
:101BE0009DF805306270C3F3C00203F00703E27092
:101BF000237102B010BD4FF0FF30FAE7F8B505468B
:101C000018460E461C46FFF702FF20BB19B3637A45
:101C10000BB905F07F056368E76B31462846B84786
:101C200094F84730A072012B0CBF4FF4E1700220F2
:101C3000236C616898477C2D06D1337813F001033B
:101C400018BF012384F8473094F90A00002818BF10
:101C50006FF00100F8BD4FF0FF30FBE773B515469C
:101C60001E460446A0B1C1F3430249098DF8042081
:101C70008DF80510022201A95B20FFF7BFFF28B9EC
:101C800033462A4621465E20FFF7B8FF02B070BDFA
:101C90004FF0FF30FAE773B502AC002304F8013DC2
:101CA00006460D460B46012221465920FFF703FF49
:101CB00060B99DF8070020F0010030438DF807005F
:101CC0002B46012221465920FFF798FF02B070BD34
:101CD000F7B50D4605F108060446002133460122FA
:101CE0000230ADF80410FFF7CFFE002838D1A378FA
:101CF000671C012B0CBF03220722014633463846DE
:101D0000FFF7C2FE60BB0C2201212046FFF7BCFE9C
:101D100030BB03220146A018FFF7B6FE00BB637874
:101D2000A2781B0103F0700343EAC213227802F089
:101D30000F0213438DF80430E2789DF8053002F06D
:101D4000030223F0030313438DF8053002222B46D0
:101D500001A94020FFF752FF10B92846FFF7E8FE1F
:101D600003B0F0BD73B50D4605F108060446002129
:101D7000334601220230ADF80410FFF785FE00283B
:101D800057D101460322601CFFF77EFE002850D188
:101D900001460122601DFFF777FE002849D10D2280
:101DA00006212046FFF770FE002842D1014601229D
:101DB000E01CFFF769FE00283BD104220146A01871
:101DC000FFF762FEA8BB9DF80430A27803F07F0302
:101DD00043EAC2136279920102F0400223F0400309
:101DE00013436278120102F0300223F030031343F0
:101DF000227823F00F0302F00F0213438DF8043012
:101E0000E378DB0003F008029DF8053003F0F003EF
:101E10001343227902F0070213438DF805300222A2
:101E20002B4601A94220FFF7E9FE10B92846FFF72B
:101E30007FFE02B070BD37B50023054608460C464C
:101E40008DF80730FFF7E3FDF0B90B4601220DF1E5
:101E500007017C20FFF72FFEB0B99DF8070005F0C1
:101E6000010520F0010028438DF8070023460122D8
:101E70000DF107017C20FFF7C1FE38B99DF807304E
:101E800003F0010384F8473003B030BD6FF00C005D
:101E9000FAE773B50023044608460D46ADF8043052
:101EA0008DF80630FFF7B3FD00285ED1002C5CD022
:101EB0002678731E022B5BD80B46032201A9532000
:101EC000FFF7F9FD00284ED106F0FD03012B1BD1D1
:101ED000A3785B0003F002029DF8043003F0F903DD
:101EE0001343E278920002F0040213432279D200F5
:101EF00002F0080203F0E70313436279120102F0D3
:101F0000100213438DF80430023E012E1BD8A37932
:101F10005B0003F002029DF8053003F0F903134360
:101F2000E279920002F004021343227AD20002F016
:101F3000080203F0E7031343627A120102F0100271
:101F400013438DF805309DF80630627823F00103C5
:101F500002F0010213438DF8063003222B4601A93B
:101F60005320FFF74BFE02B070BD4FF0FF30FAE791
:101F70006FF00B00F7E713B5002304460846ADF8F1
:101F80000430FFF744FD80B97CB10B46022201A961
:101F90001C20FFF790FD30B99DF805209DF8043016
:101FA00043EA0223238002B010BD4FF0FF30FAE76E
:101FB0002DE9F043174685B0044600220023384639
:101FC000CDE90223FFF723FD002852D1002C50D089
:101FD00002AA2046FFF729FD002847D104AE3B4660
:101FE00006F8090D012231467D20DDE90289FFF75F
:101FF00062FD00283AD1002308F0010213431EBFFE
:102000009DF8073043F004038DF8073008F0020212
:10201000002313431EBF9DF8073043F002038DF8E1
:10202000073008F00402002313431EBF9DF8073059
:1020300043F001038DF80730002209F00103134338
:1020400018BF9DF8073008F0070418BF43F00803D5
:1020500009F0010518BF8DF8073054EA050305D0D3
:102060003B46012231467D20FFF7C8FD05B0BDE8A3
:10207000F0834FF0FF30F9E72DE9F04188B00E46CC
:1020800005460021142203A88DF8071049F0D0FB63
:102090003046FFF7BCFC002840F09880002D00F08F
:1020A0009580334601220DF107017D20FFF703FDE6
:1020B00000287DD19DF8074014F0010F14BF4FF0A8
:1020C00008084FF0000814F0040718BF08F10607CD
:1020D00014F002041CBF08F10604E419B8F1000F63
:1020E00007D0002F75D0002C14BF14220E2204201C
:1020F00005E0002F72D0002C5DD106220C20334663
:1021000003A9FFF7D8FC002852D1ADF808008DF8DC
:102110000A00B8F1000F0BD00DF10B0205F1170307
:1021200005F11F0112F8010F03F8010F9942F9D1CF
:1021300047B103ABB91F19442846FFF721FC3146CC
:10214000FFF72EFC14B305F10C04B8F1000F4CD0CE
:102150000DF11A012046FFF713FC298AB6F8442036
:10216000B5F90C3012FB01F24FF4007192FBF1F261
:1021700012B29B1AB3F5004F23DA13F5004F23DB9D
:102180001BB2AB8131462046FFF70AFC33460322DF
:1021900002A91820FFF78FFC50B99DF809309DF86F
:1021A0000A201B0243EA02439DF8082013432B62D6
:1021B00008B0BDE8F0810C221046A0E70DF1120135
:1021C000C8E747F6FF73DCE70A4BDAE74FF0FF306A
:1021D000EEE7002C14BF1422082288E7002C0BBF66
:1021E000224606222046122089E7002FE6D103A9C5
:1021F000B0E700BF0080FFFF10B504460846FFF7B8
:1022000006FC40B93CB10B46012221460320BDE843
:102210001040FFF750BC4FF0FF3010BDF7B502ACD7
:10222000002304F8013D06460F4615461346214695
:1022300001225820FFF73FFCB0B9032F19D8330112
:10224000022FD8B29DF8073011D0032F0ED0012FE6
:102250001ABF3043834333438DF8073001222B46A6
:1022600021465820FFF7CAFC03B0F0BD33430343B7
:10227000F2E76FF00B00F7E770B5054608460C462D
:10228000FFF7C5FB60B95DB10B6C0748496898471B
:102290002346294601222120BDE87040FFF70BBCF0
:1022A0004FF0FF3070BD00BFE0220200F7B5002301
:1022B00004468DF80730FFF7AAFB00287DD1B4F85B
:1022C0004A60002E79D0E389DA0744BF03F1FF3377
:1022D000E381E389012B9CBF0223E3812146002097
:1022E000E789FFF7A8FD034660BB2146FFF7D3FC53
:1022F000034638BBB6FBF7F507FB156515F0FF0580
:1023000023D0751BADB20746BD4220D9D3B9206991
:10231000E289234639463844FFF7A0FCE289174496
:102320000346BFB2F0E72069E289234629462844E4
:10233000FFF794FCE28915440346ADB2AE420ED9D4
:10234000002BF0D0184603B0F0BD0546F6E7002B91
:10235000F8D10222E789E281AE4220D8E781002B42
:10236000F0D121460120FFF796FC03460028E9D171
:1023700021460120FFF75FFD03460028E2D12146F8
:102380000DF10700FFF778FF03460028DAD19DF82A
:10239000072012F0010F08BF6FF00803D2E7002BEF
:1023A000DCD12069E289234629462844FFF756FC00
:1023B000E28915440346ADB2CEE74FF0FF33C1E7E3
:1023C00037B5B6238DF80630002305468DF8073063
:1023D000FFF71DFB0446B8B901222B460DF106019B
:1023E0007E20FFF70BFC2B6C696804464FF4FA6003
:1023F0009847012285F8472034B96B7A3BB12846CB
:10240000FFF754FF044660B1204603B030BD2046BC
:102410002B460DF10701FFF74EFB04460028F3D1D0
:10242000EDE700220023C5E90C23EDE713B50023F7
:102430008DF807300446FFF7EAFA034668B9637A75
:10244000012284F847205BB1234601220DF10701E8
:102450000020FFF730FB034658B1184602B010BD0C
:1024600023460DF10701FFF726FB03460028F4D1B0
:10247000EAE79DF80720217891420BD110222273C0
:102480000122E275054A208562622046FFF798FF27
:102490000346E2E722706FF00203DEE7000102006C
:1024A0002DE9F74314468DF807008946002942D0EC
:1024B000002A40D0127DC3B29A423FD9234601225E
:1024C0000DF107012F20FFF799FB30BBE3890F2B9C
:1024D0002AD8DA0748BF03F1FF334FF0000648BFA0
:1024E000E3813027B0461025E089AAB2824209EB89
:1024F0000801234614D302463846FFF7DCFAA57BD1
:10250000A8442F445FFA88F8FFB22E44F6B2C6F111
:102510001005EDB208B9002DE6D103B0BDE8F08397
:102520003846FFF7C8FAF0E7234610224946302024
:10253000FFF7C1FAF1E74FF0FF30EEE76FF0090067
:10254000EBE77FB50E46044610220021684649F0AD
:102550006FF9B57D0023DAB2AA4202D36FF007000B
:102560000FE003EB4302316A88188A5C092A03F101
:102570000103F0D18578407832466946FFF790FF35
:1025800008B104B070BD04AB1D4415F8103C03F055
:1025900001022270C3F340026270C3F38002C3F3EE
:1025A000C203A270E370ECE72DE9F043074687B061
:1025B00010461646FFF72BFA044600286ED1002F6E
:1025C0006CD03D1D92F8478007EB01170437BD42E0
:1025D00003D1204607B0BDE8F08315F8043C032B77
:1025E00007D9B8F1010F04D131460020FFF723FCD1
:1025F000044674BB15F8043C092B48D0292B0ED196
:102600001022214602A849F013F9B6F848309B067B
:1026100008D496F816C02346DAB294451BD86FF05A
:102620000704D6E7334601220DF107011E20FFF70C
:1026300042FA08BB9DF8073013F0400F18BF803BEB
:102640002B80B8F1010F04D131464046FFF7F3FB70
:1026500004461035BBE703EB4302316A88188A5CF5
:10266000292A03F10103D7D190F80290407832462D
:1026700002A9FFF715FF08B10446AAE706AB994483
:1026800019F8102C02F07F0312F0400FD6E7314604
:102690002846FFF756FF0028D3D0EDE74FF0FF3470
:1026A00097E71FB5B0F848309B07044611D5FFF7F0
:1026B000AEF988B904A8292300F8103D224601216B
:1026C000FFF772FF18B9BDF80430A4F8443004B025
:1026D00010BD6FF00700FAE74FF0FF30F7E7F0B5F5
:1026E000577D0023DCB2A74201D800200DE003EBA8
:1026F0004305D6697419755D8D4203F10103F1D16B
:1027000023880380A37883700120F0BD2DE9F04F6A
:10271000044687B010461546FFF779F9002840F0C7
:102720005681002C00F053814FF0340818FB01480B
:1027300092F847A0DFF89CB2A61C08F10208814677
:1027400002AFB04505D1BAF1010F00F03A81002483
:102750001AE0BAF1010F10D016F8023C092B00F272
:10276000EA80DFE813F015001B002000E800E80015
:10277000E800E800E800E800D90029460020FFF75B
:102780005AFB04460028E7D0204607B0BDE8F08F8A
:1027900029463046FFF79CFA0446A7E02946304612
:1027A000FFF7E0FAF8E705F108030B220121701D9D
:1027B000FFF76AF904460028E6D12B460122394684
:1027C0006B20FFF778F904460028DDD133789DF8B7
:1027D00008205B0122F0200203F0200313438DF850
:1027E000083001222B4639466B20FFF707FA0446D2
:1027F0000028C9D1ADF808008DF804002B4602224C
:1028000039464B20FFF757F904460028BCD19DF804
:102810000830F27903F0010343EA42038DF80830EF
:102820009DF80930727803F07F0343EAC213B2784F
:10283000920102F0400223F040031343F278920029
:1028400002F00C0223F00C031343327923F003034C
:1028500002F0030213438DF809301524294601A81C
:10286000FFF7CAFC00284BD19DF804305B0747D422
:102870002B46394602224B20FFF7C0F92B6C6968C2
:1028800004464FF47A709847002C7FF47DAF73783C
:102890008BBBEC752B4606F1080101224D20FFF79A
:1028A000ADF92B6C696804464FF47A709847002C98
:1028B0007FF46AAF2B46012239464420FFF7FBF82C
:1028C000044698B97379B27903F00F0343EA02130F
:1028D0008DF8083039462B4601224420FFF78EF947
:1028E0002B6C696804464FF47A7098473436002C94
:1028F0003FF427AF48E70123EB75F3782B76D9E750
:102900002B6C696842F21070013C984714F0FF0488
:10291000A4D16FF00E0437E710220021384648F0AA
:1029200087FF2A46092101A8ADF804908DF806908A
:10293000FFF7D5FE10B96FF0070425E739469DF87B
:102940000500FFF7ADFD04460028CFD19DF8063005
:10295000B6F800C05A0810B2CCF30A0C37F81010C1
:1029600001EA0B0141EA0C0127F81010501CB6F8DF
:1029700002C037F81010CCF30A0C01EA0B0141EA4F
:102980000C0127F81010901CB6F804C037F810108E
:10299000CCF30A0C01EA0B0141EA0C010332C3EB50
:1029A000420327F8101003F0FF03E2B2934206D867
:1029B0002B46102239463020FFF720F9ECE601348F
:1029C000F3E729465046FFF736FA0446DCE64FF0B7
:1029D000FF34D9E600F8FFFF2DE9F041804686B0CC
:1029E00010461546FFF713F820B14FF0FF3006B040
:1029F000BDE8F081B8F1000FF7D0342616FB018650
:102A000092F8477008F102040236B44203D1012F54
:102A100073D00020EBE714F8023C032B0CD8022BF8
:102A200073D014F8023C092B6CD8DFE803F00E16C3
:102A3000706B6B6B6B6B6B1B012FF2D12946002007
:102A4000FFF7F9F90028D2D1EBE729462046FFF736
:102A500087F8002800F0A680C9E729462046FFF73E
:102A6000A3F8F6E71022002102A848F0E1FE0023B7
:102A70002A46092101A8ADF804308DF80630FFF789
:102A80002EFE00283ED002A99DF80500FFF708FDA4
:102A90000028ACD19DF8063006A95A1C51FA82F2E2
:102AA00012F8101C06AA1A4412F8102C42EA01224D
:102AB000C2F30A0206A92280DA1C51FA82F2991C9A
:102AC00012F8100C06AA52FA81F111F8102C42EA01
:102AD0000022C2F30A0206A962805A1D043351FA89
:102AE00082F251FA83F312F8102C13F8103C43EAE7
:102AF0000223C3F30A03A38054E029463846FFF7B4
:102B00009AF974E76FF0070071E7012F96D0284615
:102B1000FEF77DFF00287FF468AF2B46012202A953
:102B20006B20FEF7C8FF00287FF461AF9DF80830E6
:102B3000ADF80800C3F34013237002222B4602A90C
:102B40004B20FEF7B8FF00287FF451AF9DF8083006
:102B50005B08E3719DF80930C3F38011DA09A170B5
:102B6000C3F3810103F003036270E17023714AB97A
:102B70002B46012204F108014D20FEF79CFF00289E
:102B80007FF435AF2B46012202A94420FEF793FFC4
:102B900000287FF42CAF9DF808301A0903F00F03CA
:102BA000A2716371343430E748B1836B3BB1C36BBE
:102BB0002BB1006CB0FA80F04009404270474FF0F2
:102BC000FF30704710B50446FFF7EEFF034610BB19
:102BD00024222270104AA264627A02B90123E372AD
:102BE00023690BB90D4B23612046FFF71FFC90B9F9
:102BF0000B4BE3610B4B236241F20813A3820723C3
:102C0000A375094BE365082384F860302046BDE8CE
:102C10001040FFF746BD10BD030000201F12060044
:102C20001F320600523206000C02002058B1C36861
:102C30004BB103693BB143692BB14068B0FA80F0F6
:102C40004009404270474FF0FF30704710F5805FF9
:102C500030B502D0D38C19B90BB9194830BD19461B
:102C60009B0393FBF1F1A1F5804109B201FB01F354
:102C7000802493FBF4F392F8244092F92550E40168
:102C8000614305FB03114FF4007391FBF3F192F9DB
:102C90001A3001F58011A03359434FF4805391FB52
:102CA000F3F14FF40053484390FBF3F092F91830DE
:102CB00000B200EBC300102390FBF3F000B2CDE7AD
:102CC0000080FFFF10F5805F30B502D0D38C19B9BA
:102CD0000BB9194830BD19469B0393FBF1F1A1F5DF
:102CE000804109B201FB01F3802493FBF4F392F8D5
:102CF000244092F92550E401614305FB03114FF490
:102D0000007391FBF3F192F91B3001F58011A033B0
:102D100059434FF4805391FBF3F14FF40053484370
:102D200090FBF3F092F9193000B200EBC3001023CE
:102D300090FBF3F000B2CDE70080FFFF10F5804F6D
:102D400070B529D0B2F91E4034B3938B23B319B3B5
:102D5000D68C0EB3B2F922508E1B4900451B4B4353
:102D6000108C03F5004304EB234310FB06F0042210
:102D700090FBF2F0C0EBC53090FBF3F0074B9842AC
:102D8000B8BF184647F6FF739842A8BF18461023ED
:102D900090FBF3F000B270BD0148FBE70180FFFF3C
:102DA0000080FFFFF8B5074618461D46FFF73EFFB7
:102DB000044640B939B132B12E696B683846B04724
:102DC00028722046F8BD4FF0FF34FAE7F8B5064602
:102DD00018461C46FFF72AFF054660B959B16378CB
:102DE000E768012B18BF46F0800663683046B84795
:102DF00020722846F8BD4FF0FF35FAE773B502ACF4
:102E0000002304F8013D06460D460B4601222146EB
:102E10004B20FFF7DBFF78B99DF8073023F0010363
:102E200033438DF8073001222B4621464B20FFF714
:102E3000B9FF08B985F82A6002B070BD38B50446FC
:102E4000FFF7F4FE054660B994F82A304BB92146E5
:102E50000120FFF7D3FF63696168054640F6B8308B
:102E60009847284638BD10B586B004460023014671
:102E700001208DF80330FFF7C1FF002857D16369A7
:102E8000616840F6B8309847234601220DF10301EE
:102E90004020FFF79BFF002849D19DF80330322BDB
:102EA00047D12370ADF80400CDE902000490ADF8DD
:102EB00014002346022201A95D20FFF787FFB0BB63
:102EC0002346042202A96220FFF780FF78BB234635
:102ED0000A2203A96820FFF779FF40BB9DF8043060
:102EE00023769DF8053063769DF80A30A3769DF829
:102EF0000B30E376BDF80E30A383BDF80C30E383CE
:102F0000BDF812302384BDF8083063849DF8153075
:102F100084F824309DF8143084F825309DF8113061
:102F20009DF810201B0203F4FE431343E38406B014
:102F300010BD6FF00100FAE737B50B4604460D46A9
:102F400001220DF107014C20FFF740FF80B99DF8E9
:102F50000700640020F0060004F0060420438DF80A
:102F600007002B4601220DF107014C20FFF71AFF45
:102F700003B030BD10B5024608460C46FFF756FEBA
:102F8000034640BB5378042B23D8DFE803F0030D3E
:102F900022151D000846FFF751FF0346D8B9214608
:102FA000BDE81040FFF7C8BF0846FFF747FF0346DC
:102FB00088B921460120F3E70846FFF73FFF0346A3
:102FC00048B921460320EBE70020BDE81040FFF799
:102FD00015BF6FF00203184610BD13B50023044659
:102FE000CDE9003308220B464B206946FFF7EEFE81
:102FF00080BB9DF8073023719DF80630E3709DF883
:10300000053023749DF80430E3739DF80330C3F357
:10301000C2022270DA09A271C3F38012E271C3F313
:1030200080022272C3F3400203F00103A3729DF8F1
:1030300002306272DA09E272C3F380122273C3F3C0
:10304000C20203F00703A3739DF801306273C3F358
:10305000C203A37002B010BD2DE9F7430023CDE9F0
:10306000003307460B460E46082269464220FFF70A
:10307000ADFE804690BB9DF802509DF903209DF95E
:1030800005909DF806409DF800309DF90100ED087F
:103090008DF8025045EA42159DF8042052088DF83B
:1030A000042042EAC9199DF80720A408DB088DF81E
:1030B000064044EA821443EA4010324621468DF825
:1030C0000030FFF7C3FD214638802846FFF7FAFDA0
:1030D000214678804846FFF731FEB880404603B06D
:1030E000BDE8F08313B50346044601220DF1070144
:1030F0004820FFF76BFE80B9234601220DF106013F
:103100004A20FFF763FE40B99DF8073003F0010243
:103110009DF8063043EA0223238502B010BD00204B
:1031200070470368C9B21B68184749000023C16192
:10313000C0F82C327047036801211B6B184710B48C
:1031400003689C6B0123A4465DF8044B6047D0F8EC
:103150002C32B3F5807F1FBF5A1CC0F82C22C01838
:1031600080F82C1114BF0120002070477047C0F870
:1031700030127047C0F834127047D0F828312BB1A4
:10318000D0F82431184490F8200070474FF0FF30F9
:10319000704738B503685B6A04469847A82040F03A
:1031A00001F994F9192094F9181005463CF0D6F865
:1031B000656138BD38B5D0F82C3214461A44B2F5E2
:1031C000807F88BFC3F58074054600F5967022465F
:1031D000184448F02FFAD5F82C322344C5F82C3285
:1031E000204638BD38B5044640690D4608B13BF06D
:1031F000B1FF206920B12946BDE838403CF004B950
:1032000038BD10B504463FF085FBD4F828413FF0A7
:1032100097FB204610BD10B504463FF07BFBD4F869
:103220002831BBB1D4F82831A3B1D4F824312344D8
:1032300093F82000D4F824310133DBB2C4F82431F0
:10324000D4F82831013BC4F8283104463FF078FB1C
:10325000204610BD4FF0FF34F8E710B50446406932
:1032600020B10368DB6898470023636123699BB141
:10327000D4F8380240F073FBD4F8380240F090FBE9
:10328000D4F8380210B103685B6898474821206978
:1032900040F0A0F80023236110BD1FB50246D0F80E
:1032A0002C32D469406981F0010100913BB90123BE
:1032B00003AA21463BF07FFFC0B204B010BD02F567
:1032C000967221463BF058FF002814BF02200020D0
:1032D000F3E770B5C2B0B2F5807F83F0010328BF79
:1032E0004FF48072009302AE04461546134649001F
:1032F000324640693BF05FFFC8B9A84218D0D4F805
:103300002831B3F5807F10D0D4F82031325C2344CB
:1033100083F82020D4F820310133DBB2C4F8203107
:10332000D4F828310133C4F828310130E5E700250D
:10333000284642B070BD70B50446BCB00025206977
:103340003CF06BF80328FAD8DFE800F058021818B0
:10335000D4F8343203B19847D4F82C32002BEED095
:103360003FF0D8FAD4F82C22206904F596713CF08D
:1033700058F83FF0E5FAC4F82C52E0E73FF0CAFAFB
:10338000C4F82051F022C4F824516946C4F82851E9
:1033900020693CF044F8002282421DDAD4F828313A
:1033A000B3F5807F18D0D4F82831B3F5807F11D0E1
:1033B000D4F820311DF80210234483F82010D4F8EB
:1033C00020310133DBB2C4F82031D4F82831013385
:1033D000C4F828310132DFE73FF0B2FA2368204613
:1033E0001B6998470028AADDD4F83062002EA6D0C9
:1033F000236820461B699847B047A0E708F0A2FC65
:103400009DE7000038B500254FF47A730446C0E903
:1034100001530D4B0360C0E90455017642762946FD
:103420004FF48072203048F003FAC4F82051C4F8F9
:103430002C52C4F82451C4F83052C4F82851C4F8AE
:103440003452204638BD00BF8832060010B4D0E99F
:10345000003409686210E40701EB020048BF8A5893
:103460005DF8044B48BFD358184708B501460430EF
:10347000FFF7ECFF08BD0000034AC260034607C91E
:1034800083E80700704700BF6832060010B586B0B9
:1034900004460391684606A980E80C0001E90C0087
:1034A000204603A9FFF7E8FF204606B010BD37B558
:1034B0006C4684E80C0094E80C000546FFF7E6FF34
:1034C000284603B030BD000070B5036888B05B6A61
:1034D00005460E46984748203FF064FF95F91920AD
:1034E00095F9181004463BF075FF71002C612046D9
:1034F0003BF08CFFBC203FF055FF164B044640F8D4
:10350000043BFEF7B5F9002104F1400040F0A0F9BA
:1035100004F1540040F03AF90F4B00932046002389
:103520004FF40062182140F00FFA0C4B0293002375
:10353000039302AB0CCB294604A8C5F83842FFF729
:10354000B6FF04A9204640F067FA04A8FEF7AEF9DA
:1035500008B070BD547D0600743206003733010098
:1035600008B5FFF782FF08BD08B5FFF7F9FF08BDF2
:1035700010B5122008F09CFB0446132008F098FBBD
:10358000214602460848FFF73DFF1E2008F090FB49
:1035900004461F2008F08CFB21460246BDE810407F
:1035A0000248FFF72FBF00BF7C140020B816002090
:1035B000704710B55C2104463FF00CFF204610BD5B
:1035C0000B4A02601F210022C0E90921C0E90B2239
:1035D00080F8342080F83520C0E90E220264A0F87B
:1035E000442080F84620C0E91222C0E91522704725
:1035F000E03206008B6A8362CB6AC3620B6B0363A3
:1036000091F8343080F8343091F8353080F8353026
:103610008B6B8363CB6BC3630B6C0364B1F8443077
:10362000A0F8443091F8463080F846308B6C8364C3
:10363000CB6CC364B1F85030A0F850304B6D43658B
:103640008B6D8365704708B5FFF7D4FF08BD70B573
:10365000054686B068460E4603F0DEFCEC6C684614
:10366000002CCCBF0234002403F014FD0230241AD5
:10367000A86A241808D4AC62AE64684603F00AFD58
:10368000E864012006B070BD0020FBE710B5036CB4
:1036900023B190F84640023304B10233941C1B1B43
:1036A000846A1B1958BFC0E90F124FF000045BBFBA
:1036B00080F8464083622046012010BD30B5046C7E
:1036C00024B190F84650023405B102341D1D641B2C
:1036D000856A64195FBFC0E90F230123A0F8441075
:1036E00080F8463056BF84620020184630BD30B5A1
:1036F000846D002CCCBF043400241D1D641B856A1E
:1037000064195DBFC0E91523A0F850108462002041
:1037100058BF012030BD70B50546806B0E4688B19C
:10372000047814B148F02CFD841C304648F028FD84
:103730000230241AA86A24185DBFAC62AE6301206F
:10374000002070BD0446F0E790F83530826A002B07
:103750000CBF6FF0020300239B185FBF836201233D
:1037600080F8353080F8341054BF18460020704778
:1037700004307047406A704790F83500704738B59C
:103780000446406AC0F11F039342154608DB04302B
:10379000204447F04FFF626A2A446262012038BD2C
:1037A0000020FCE770B50446406A0E461D461146EF
:1037B0000233C0F11F029A420FDB23186A1C1A71F0
:1037C000821C0630626220445E712A4647F032FF56
:1037D000636A2B446362012070BD0020FCE770B572
:1037E00086B00546684603F017FC684603F052FCB5
:1037F000022804466846CCBF0626022603F048FC91
:103800002346024631462846FFF7CCFF06B070BD7E
:1038100013460A46FF21FFF7C5BF70B588B008AC54
:10382000064624F8201D10461D461A4601460DF195
:10383000020047F0FFFEAB1C2246FF213046FFF797
:10384000B1FF08B070BD70B588B008AC064624F86A
:10385000201D10461D461A4601460DF1020047F094
:10386000E9FEAB1C224616213046FFF79BFF08B04D
:1038700070BD07B502AA012302F8011D1946FFF722
:1038800091FF03B05DF804FB70B5054610460E4687
:10389000144648F075FC2246034631462846BDE8EA
:1038A0007040FFF77FBF70B5054608460C4648F0EC
:1038B00067FC1D2807D9224628461D230821BDE89C
:1038C0007040FFF76FBF224628460921BDE87040CF
:1038D000FFF7DABF38B5C16A00230546436229B154
:1038E000026B1AB1BDE83840FFF749BF95F8353093
:1038F0007BB395F834102846FFF7BBFF0446A96C4C
:1039000021B12846FFF76BFF0440E4B2E96B61B1D7
:103910002B6C53B195F84620EAB10A462846B5F813
:103920004410FFF77AFF0440E4B26A6D42B1AB6D18
:1039300033B1B5F850102846FFF785FF0440E4B2D4
:10394000A96B21B12846FFF7AEFF0440E4B2204640
:1039500038BD0124D3E71A462846FFF759FFE2E7AE
:103960000C4B10B504460360406838B100F0E2FA31
:1039700020B9606810B103685B689847A06838B1E7
:1039800001F05BF820B9A06810B103685B68984744
:10399000204610BDF032060010B50446FFF7E0FFE8
:1039A00020460C213FF016FD204610BD064B10B5F9
:1039B000C0E9003100230446836011B1084600F0DD
:1039C000B4FA204610BD00BFF0320600064B10B519
:1039D000036000230446C0E9013111B1084601F03B
:1039E00027F8204610BD00BFF03206002DE9F34154
:1039F0000446542098460E4617463FF0D3FC9DF8E7
:103A000020300093054643463A46314600F06CFBB1
:103A100029462046FFF7CAFF204602B0BDE8F081E4
:103A20000346406808B100F08DBA986808B101F00B
:103A30002DB870470346406808B100F08DBA986809
:103A400008B101F027B870470346406808B100F09C
:103A5000E5BA986808B101F073B87047406808B1DA
:103A600000F0E9BA70474068704708B5836823B131
:103A7000FFF7D6FFC0F3400008BD1846FCE780689A
:103A800008B101F073B87047F8B5054640680E46B6
:103A9000174618B300F060FAB842A8BF384604468B
:103AA000686800F057FA22460146304647F0C2FDEA
:103AB000A86888B101F053F890B9A86800F0EAFF4F
:103AC00087423C46A8BF0446A86800F0E1FF2246B2
:103AD0000146304647F0AEFD2046F8BD0446E7E714
:103AE0002846FFF7C2FF0028E7D02846FFF7C7FFA8
:103AF0000028E2D10446EFE770470000024B186847
:103B000003681B69184700BF90360600024B18680F
:103B100003685B69184700BF9036060010B4054B78
:103B200001791B681A685469421D184623465DF8DE
:103B3000044B1847E434060010B50B4B04461868D4
:103B400021790368621D9B6A98474FF6FF7398427C
:103B5000014606D0054B18680268BDE81040926A1D
:103B6000104794F94B0010BDE4340600903606006F
:103B700010B54C2104463FF02DFC204610BD00003E
:103B800010B58AB0044648794B7A8A7A03908879CE
:103B90000290C8790190097A009105A8044948F07B
:103BA00069F805A9204607F070FE20460AB010BD4E
:103BB000F832060007B50023062269460530009357
:103BC000ADF8043047F004FD003018BF012003B009
:103BD0005DF804FB08B502790B799A4208D10622F8
:103BE0000531053047F0F4FCB0FA80F0400908BD1B
:103BF0000020FCE710B50A4B0446186803681B69EF
:103C00009847236820461B6A984740B1054B2179A5
:103C100018680368621D5B6BBDE81040184710BD53
:103C200090360600E434060008B502790B799A4212
:103C300008D106220531053047F0CAFC003018BF14
:103C4000012008BD0120FCE7064A02607F21002216
:103C5000C272027380F84B10C0F80520A0F809204A
:103C6000704700BF2033060010B501710021C172FA
:103C70000173064C04607F2180F84B101168C0F876
:103C800005109288A0F8092010BD00BF203306005F
:103C90002DE9F0410F461449064607F0F6FD3A7B40
:103CA00000218A421CDD7B1801F10208597B9B7BB5
:103CB000083B012B01F1FF340FD82146304607F0B5
:103CC000B8FD0025AC420BDD08EB05033B44304654
:103CD000597B07F0B2FE0135F4E704EB0801E0E799
:103CE0003046BDE8F08100BFB47606002DE9F04F04
:103CF00085B0884622490192834607F0C6FD00241C
:103D0000A14698F80C30A34235D908EB0403671C90
:103D1000FFB25E7B08EB07035B7B9A1E012A25D965
:103D2000063B012B24D810250234E4B205FB05F331
:103D30000D34009344444FF0000A731EEAB2534519
:103D400016DD019989450BD1114620460393029255
:103D500003F0A2F90146584607F0FAFDDDE9022317
:103D6000009909F10109AA440C44E8E70225DBE7C0
:103D70003E44F4B2C5E7584605B0BDE8F08F00BF39
:103D8000B476060010B500220446FFF7AFFF2046C8
:103D900010BD08B5134602798A4208D10622194699
:103DA000053047F015FCB0FA80F0400908BD00204E
:103DB000FCE710B50446012000FA01F1E17222731C
:103DC000194604F10D0047F035FC9DF9083084F8E0
:103DD0004B3010BD70B50D461146C27A42F010024C
:103DE0000446C272007B0D302A4620441E4647F02E
:103DF00021FC237B84F84B601D44257370BDC37A7E
:103E000013F0180F14BF0120002070470C4B10B5A1
:103E100004460360406838B100F08CF820B960684F
:103E200010B103685B689847A06838B100F005FEE0
:103E300020B9A06810B103685B689847204610BDA0
:103E40005433060010B50446FFF7E0FF20460C216E
:103E50003FF0C0FA204610BD064B10B5C0E9003156
:103E600000230446836011B1084600F05EF8204646
:103E700010BD00BF5433060070B5044630200E4616
:103E80003FF090FA3146054600F00CFD29462046E9
:103E9000FFF7E2FF204670BD0346406808B100F01E
:103EA0003BB8986808B100F0C1BD0148704700BF39
:103EB000B4760600406808B100F032BD7047406833
:103EC0007047000037B5002500950446FFF78EFDCA
:103ED000024B2360204603B030BD00BFEC0C06004F
:103EE00001220968FFF7B0BD70470020704710B588
:103EF000202104463FF06EFA204610BD10B5054B58
:103F0000044640F8043B03F087F80023E3612046B1
:103F100010BD00BF64330600043003F0B7B80430AE
:103F200003F0B6B8043003F0B5B8C3690133C36118
:103F300018467047C369013BC3611846704742F693
:103F40000300704790F82000704790F821007047F8
:103F5000406A7047806A7047808D7047F8B5154693
:103F6000426AAA42A8BF2A460446828592B2806A63
:103F70000E4647F05FFB94F82E300BB1636AA385C1
:103F800094F8203098060DD5A28E91070AD51F4BC4
:103F9000218E186803685D6D0131A38DA26A89B214
:103FA000A847F8BDDA0609D5A38EDB0706D5174B5F
:103FB000218E1868036801311D6DEEE794F83230E8
:103FC0000BB90120EDE7124B1868036821465B6AC4
:103FD0009847104B1C68236801461F6B32462B46DE
:103FE0002046B847094B186803681B6B98470028A0
:103FF000E7D1094B186803689B6898470028E0D010
:10400000236820465B6D9847DBE700BFE434060079
:1040100030360600A0330600E435060038B5054604
:1040200008460C4648F0ACF8214602462846BDE852
:104030003840FFF793BF0346002290F8330083F81F
:104040003320704701867047008E7047008E013024
:1040500080B27047806B7047836B994208D2C36B04
:104060000022914202D05B680132FAE7186870477B
:104070000020704730B5114B03600B7903710B467C
:1040800001F1490453F8052FC0F805209B88A0F8DA
:104090000930CB7AC3720B7B037300F10D0201F17F
:1040A0000D0353F8045B42F8045BA342F9D11B886B
:1040B000138091F94B3080F84B3030BD203306002F
:1040C00038B5044608200D463FF06CF90023C0E9DE
:1040D000005363682BB960602368A06001332360DC
:1040E00038BDA3685860F7E770B5044615461E460C
:1040F000FFF704FF1E4B2360B6F5007F4FEA152340
:1041000084F821303346A8BF4FF400730021636266
:104110009DF8103084F82050A18584F82E30218637
:1041200084F8321084F83310A186C4E90E1121649A
:10413000102204F1440047F07BFB15F0300F11D042
:104140002C203FF02FF90B490546022304F13402DD
:1041500000F0D6F82846FFF7E8FE294604F13800BB
:10416000FFF7AEFF304646F019FFA062204670BD53
:10417000803306007033060070B5044640680025A1
:104180002368AB4206D9466808213FF023F9013580
:104190003046F5E70023C4E90033A36070BD00009A
:1041A000154B70B5044603600025A36B9D4212D2E7
:1041B000E36B0022954202D05B680132FAE71E6889
:1041C0003046FFF7B7FE20B91EB1336830465B6852
:1041D00098470135E9E704F138052846FFF7CCFF99
:1041E000A06A08B146F0E2FE2846FFF7C5FF204668
:1041F000FFF77AFE204670BD8033060010B50446F6
:10420000FFF7CEFF204654213FF0E4F8204610BDD2
:10421000F0B5C56C97B0044617461E467DB103A89D
:10422000FFF728FF21466846FFF7C0FB694603A851
:10423000A8476846FFF794FB03A8FFF75DFCA16A57
:104240001C9A3944304647F0F5F917B0F0BD70B507
:1042500004460E461146012280F8332096B01A46D5
:10426000FFF77CFE256D85B1314603A8FFF702FFFD
:1042700021466846FFF79AFB694603A8A8476846A7
:10428000FFF76EFB03A8FFF737FC16B070BD30B523
:10429000838E02F00302934297B0044617D08286C1
:1042A000002A0CBF44224022024455687DB103A875
:1042B000FFF7E0FE21466846FFF778FB694603A852
:1042C000A8476846FFF74CFB03A8FFF715FC17B09B
:1042D00030BD4FF42450704710B5034B03600446C3
:1042E000FFF702FE204610BD9433060010B50446C9
:1042F000FFF7F2FF20462C213FF06CF8204610BD5E
:1043000070B504461D461646FFF7F8FD064B2360C0
:10431000B5F5007FA8BF4FF40075002326626562E3
:104320002385204670BD00BF94330600406A704765
:10433000006A704701857047064B1868036810B51E
:10434000DB689847044B18680368BDE81040DB68D9
:10435000184700BF3036060090360600024B18683A
:1043600003681B69184700BF90360600024B1868A7
:1043700003685B69184700BF9036060010B5064B0E
:10438000186803681B699847044B18680368BDE800
:1043900010401B6B184700BF90360600E43406003F
:1043A00010B5064B186803681B699847044B1868DA
:1043B0000368BDE81040DB6B184700BF903606006D
:1043C000E4340600024B186803689B6C184700BF72
:1043D000E43406000C30704768307047024B1868B0
:1043E00003681B69184700BF30360600024B186887
:1043F00003685B69184700BF30360600024B186837
:1044000003689B69184700BF30360600024B1868E6
:1044100003681B69184700BFE4350600024B1868A3
:1044200003685B69184700BFE4350600024B186853
:1044300003685B6A184700BFE435060010B5074BF8
:104440000446186803681B699847054B19680B6890
:104450002046DB6C9847204610BD00BF9036060012
:10446000E434060010B5074B0446186803681B695E
:104470009847054B19680B6820469B6A9847204669
:1044800010BD00BF90360600E4350600024B1868E8
:104490000368DB6A184700BFE4350600024B186862
:1044A00003689B69184700BFFC380600024B186878
:1044B0000368DB69184700BFFC380600024B186828
:1044C00003681B6B184700BFE4350600024B1868F1
:1044D0000368DB68184700BFE4340600024B186825
:1044E00003681B6A184700BFFC380600024B1868B7
:1044F00003685B6A184700BFFC380600024B1B6864
:10450000C3F8F010704700BF90360600024B1B68DE
:10451000C3F8F810704700BF90360600024B1B68C6
:10452000C3F8F410704700BF90360600024B1B68BA
:10453000C3F8EC10704700BF90360600024B1B68B2
:10454000C3F8FC10704700BF90360600024B1B6892
:10455000C3F80011704700BF90360600024B186880
:104560000368D3F89C30184790360600024B186851
:104570000368D3F8A030184790360600F0B52A4BF0
:104580001D682B6887B004469B68284698470646F6
:1045900020B923682046DB6898470DE0642007F0C7
:1045A000BFFB2B6828469B699847064638B12368AD
:1045B0002046DB6898470026304607B0F0BD05AAC4
:1045C0002B6801920DF112020092DF6904AA0DF12D
:1045D0000E030DF10D012846B8470028D9D12B68EC
:1045E0004FF0FF32D96A28466FF0404388470028D1
:1045F000CFD12B6840F2FF32196B28460023884741
:1046000006460028D3D12B680DF10F025B6B0DF12C
:104610001601284698470028BBD1044B1868036848
:104620009B6898470126C7E790360600303606009B
:1046300010B58CB000230593ADF81830104B04462C
:104640001868036805A91B6A98479DF81410039120
:104650009DF8151002919DF8161001919DF8171004
:104660009DF818309DF81920009107A8054947F0DA
:1046700001FB07A9204607F008F920460CB010BD41
:1046800090360600F83206000C30FEF7E0BF70B539
:104690000368044608469D6AFFF7FEFB2B46014669
:1046A0002046BDE8704018470C30FFF720B80C30AA
:1046B000FEF7ECBF0C30FFF701B86830FFF72BB8FE
:1046C0006830FEF7C0BF10B500F10C042046FEF7BD
:1046D000BAFF2046FFF750F828B920460621BDE86A
:1046E0001040FFF731B810BD2DE9F74300F10C057C
:1046F000044668342846FFF7EDF82046FFF7EAF84D
:104700000E4B1E6833682846DF68FFF731F8804695
:104710002846FFF72FF805462046FFF729F881467F
:104720002046FFF727F8C0B200904B46EAB2414658
:104730003046B84703B0BDE8F08300BFE43506005B
:104740007FB5094B1C682368164601A89D6907F0D0
:10475000EFF8324601A92046A847044601A807F011
:1047600049F8204604B070BDE43506007FB5094B1A
:104770001C682368164601A8DD6907F0D9F832469F
:1047800001A92046A847044601A807F033F82046AF
:1047900004B070BDE43506007FB5094B1C68236882
:1047A000164601A81D6A07F0C3F8324601A9204643
:1047B000A847044601A807F01DF8204604B070BDC4
:1047C000E435060002290BBF044B054B1868186836
:1047D0000BBF036803685B6B9B6D1847E4350600ED
:1047E000E434060038B50446084B44F80C3B054653
:1047F0002046FEF7E5FE05F16800FEF7E1FE062122
:104800002046FEF7A1FF284638BD00BFAC330600A6
:1048100010B5054C2046FFF7E5FF2046034A044942
:10482000BDE810403EF0B3BBF418002000020020A9
:104830003548010010B5064B044640F8683BFEF7CA
:10484000B7FE04F10C00FEF7B3FE204610BD00BF1A
:10485000AC33060010B50446FFF7ECFF2046C42138
:104860003EF0B8FD204610BD10B50B4B19680B6823
:1048700094B001A8DB6C984701A8FFF79BF948B1F9
:1048800001A8FFF759F9044601A8FFF735F92046BA
:1048900014B010BD7F24F7E7E43406004FF4205035
:1048A0007047000010B50446FFF728FB044B236057
:1048B0000023C4E90833C4E90A33204610BD00BF11
:1048C00078340600018442847047008C7047408C25
:1048D0007047406A7047436A994208D2836A00224F
:1048E000914202D05B680132FAE7186870470020F5
:1048F000704738B5044608460D46FFF716FB0820FA
:104900003EF050FD0023C0E90053A36A2BB9A0621A
:10491000636AE0620133636238BDE36A5860F7E7B7
:1049200010B504460846FFF79EF8014620B1204620
:10493000BDE81040FFF7DDBF10BD70B5044640680C
:1049400000252368AB4206D9466808213EF042FDA7
:1049500001353046F5E70023C4E90033A36070BD9C
:1049600010B504462430FFF7E8FF0023236210BD92
:10497000134B70B5044603600025636A9D4212D252
:10498000A36A0022954202D05B680132FAE71E68F2
:104990003046FFF7CFFA20B91EB1336830465B6866
:1049A00098470135E9E72046FFF7DAFF04F12400D4
:1049B000FFF7C3FF2046FFF797FA204670BD00BF00
:1049C0007834060010B50446FFF7D2FF20463021A8
:1049D0003EF000FD204610BD10B5044B044640F8E3
:1049E000043B06F007FF204610BD00BF8C340600D4
:1049F00010B50446FFF7F0FF204614213EF0EAFC14
:104A0000204610BD38B504462546074B45F8043B03
:104A10000846114602F040FB0146284606F035FFE5
:104A200000232361204638BD8C340600406870475F
:104A3000036901330361184670470369013B036151
:104A40001846704770B504461E46BDF81450FFF76F
:104A5000D9FF0D4B2360BDF81030E382BDF818304C
:104A6000257663832D0A00230122A6826576C4E998
:104A7000073384F8243084F82520C4E90A33C4E9D4
:104A80000C33204670BD00BF9C340600007E70478A
:104A9000C0697047006A70472DE9F0439846274B7C
:104AA0001E68336885B004460F469B6B818A30468A
:104AB0009146984718B9002005B0BDE8F0833368E7
:104AC000A18A5B6C30469847033885B24D45A8BF34
:104AD0004D462946E06946F00BFFE0610028EAD028
:104AE000237E1A071CD5B8F1000F19D003A833682C
:104AF0000190E8B20090D3F86080628BA18A3B46B7
:104B00003046C0470028D7D09DF80C30012BD2D0BA
:104B10002A463946E06946F08DFD25620120CBE743
:104B20005B07C8D53368628BA18AE8B20090D3F8DE
:104B3000648030463B46C047EAE700BFE4340600E5
:104B400070B50546084616460C4647F019FB334635
:104B5000024621462846BDE87040FFF79DBF034648
:104B6000012290F8250083F825207047F0B5154BF9
:104B7000818A1E683368C1B004469B6B30469847F3
:104B8000054648B13368628BDF6DA18A6B463046BB
:104B9000B84720B900252562284641B0F0BD9DF8F0
:104BA0000030012BF6D0411E2162E06946F0A0FEE4
:104BB000E0610028EED0226A0DF1010146F03AFDD5
:104BC000EAE700BFE4340600408B704738B504467E
:104BD00008460D46FFF72CFF08203EF0E3FB0023BC
:104BE000C0E90053E36A2BB9E062A36A2063013392
:104BF000A36238BD236B5860F7E770B50446406880
:104C000000252368AB4206D9466808213EF0E2FB46
:104C100001353046F5E70023C4E90033A36070BDD9
:104C200003688B4208D9436800228A4202D05B683D
:104C30000132FAE71868704700207047F8B505465A
:104C4000134B45F8283B04460026A36A9E420ED229
:104C500031462846FFF7E4FF0746FFF7EEFE20B98E
:104C60001FB13B6838465B6898470136EDE7284638
:104C7000FFF7C3FFE06918B146F098F90023E3613C
:104C80002846FFF7BAFF2046FFF7A6FE2046F8BDEC
:104C90009C34060010B50446FFF7D0FF20463821AB
:104CA0003EF098FB204610BD70B50446036296B0F6
:104CB0000D46C0691946164646F01AFEE06110B965
:104CC000206216B070BD012384F8243000233146E1
:104CD00084F82530226A46F0ADFC666B002EF0D0D9
:104CE000194B03932B798DF810302B4605F14901B0
:104CF00053F8052FCDF811209B88ADF81530EB7ACD
:104D00008DF817302B7B8DF818300DF1190205F155
:104D10000D0353F8040B42F8040B8B42F9D11B88A6
:104D2000138095F84B308DF8573021466846FEF7D2
:104D30004DFE694603A8B0476846FEF711FE03A87A
:104D4000FEF7DAFEBDE700BF20330600074B10B5C3
:104D500004460360806918B146F028F90023A36176
:104D60002046FFF739FE204610BD00BFAC340600D8
:104D700010B50446FFF7EAFF204620213EF02AFB4B
:104D8000204610BD38B504461D46FFF73BFE054BD7
:104D90002360BDF81030E3820023A582C4E9063306
:104DA000204638BDAC340600034A02600022C0E948
:104DB0000122C260704700BFBC34060038B504460B
:104DC00008460D46FFF734FE08203EF0EBFA0023BC
:104DD000C0E90053A3682BB9A0606368E0600133A9
:104DE000636038BDE3685860F7E740687047436820
:104DF000994208D283680022914202D05B68013256
:104E0000FAE7186870470020704770B5044640689C
:104E100000252368AB4206D9466808213EF0DAFA3D
:104E200001353046F5E70023C4E90033A36070BDC7
:104E300070B50646002473689C4212D2B368002203
:104E4000944202D05B680132FAE71D682846FFF7FA
:104E5000F4FD20B91DB12B6828465B6898470134E2
:104E6000E9E7301DFFF7D1FF70BD000038B50446FB
:104E7000054B44F8043B0546FFF7DAFF2046FFF7F1
:104E8000C4FF284638BD00BFBC34060010B5044638
:104E9000FFF7ECFF204610213EF09CFA204610BDA3
:104EA00038B504461D46FFF7ADFD084B2360BDF83D
:104EB0001030E382A582064904F1180006F0E5FCF3
:104EC0000023C4E90933E362204638BDCC34060030
:104ED000B4760600808A7047C08A7047406A70477F
:104EE000436A994208D2836A0022914202D05B68E9
:104EF0000132FAE7186870470020704738B5044659
:104F000008460D46FFF794FD08203EF04BFA0023BB
:104F1000C0E90053A36A2BB9A062636AE06201335F
:104F2000636238BDE36A5860F7E770B504464068CD
:104F300000252368AB4206D9466808213EF04AFAAC
:104F400001353046F5E70023C4E90033A36070BDA6
:104F5000154B70B5044603600025636A9D4212D26A
:104F6000A36A0022954202D05B680132FAE71E680C
:104F70003046FFF762FD20B91EB1336830465B68EA
:104F800098470135E9E704F124052846FFF7CDFFEE
:104F90002846FFF7CAFF04F1180006F02BFC204654
:104FA000FFF71AFD204670BDCC34060010B504464C
:104FB000FFF7CEFF204630213EF00CFA204610BD10
:104FC000A0F8A8107047C0F8AC1070472DE9FF4159
:104FD000013A13F8014BD6B20268CDE90233526CA4
:104FE00005460F4690470C2C02462968029B79D053
:104FF0002FD8052C69D01AD8022C60D00BD8012CE0
:1050000053D006230093D1F8DC60002322463946B2
:105010002846B0476EE0032C54D0042CF1D1009305
:10502000D1F89440334639462846A04762E0092C1F
:1050300052D007D8062C4BD0082CE2D10093D1F8DF
:10504000A440EFE70A2C4DD00B2CDAD1D1F8B440B4
:105050002DE0162C51D00FD8112C40D005D8102C93
:10506000CFD10093D1F8B840DCE7122C18D0132C24
:10507000C7D1D1F8C8401AE01D2C04D00CD8182C88
:105080003FD01B2CBDD10093D1F8D48033462246AB
:1050900039462846C0472DE01E2C36D0522CB0D1C0
:1050A000CDE90063D1F8C46020E0D1F884403246F5
:1050B00039462846A44604B0BDE8F0416047D1F81F
:1050C0008840F4E7D1F89040F1E7D1F89C40EEE752
:1050D0000093D1F8A040A5E7D1F8AC40E7E7D1F8BC
:1050E000C040E4E7CDE90063D1F8B060234639461B
:1050F0002846B04704B0BDE8F0810093D1F8CC4019
:1051000090E70093D1F8D0408CE7D1F8D840CEE7B3
:1051100000F18C034FF6FF72B0F8B010914204D149
:105120001C309842F8D1002070470120704708B524
:1051300003689B6A98474FF6FF73C01A18BF012097
:1051400008BD000038B50A4B0446186803681B699F
:105150000D469847204604F18C03B0F8B020AA42CF
:1051600004D01C309842F8D1002038BD0120FCE763
:105170009036060000F18C0390F9C820002A04DB69
:105180001C309842F8D1002070470120704730B59C
:1051900000231C2404FB0302B2F8B0508D4204D05B
:1051A0000133052BF6D1002002E092F8C800C009B7
:1051B00030BD30B500231C2404FB0302B2F8B0500C
:1051C0008D4202D1B2F8C00030BD0133052BF3D1BE
:1051D0001720F9E71FB5ADF80D20026800930224EF
:1051E0008DF80C400323D2F8F04003AAA04704B086
:1051F00010BD1FB5ADF80920ADF80B30069A036855
:10520000009204248DF8084002AAD3F8F040052348
:10521000A04704B010BD1FB5ADF80B30BDF8183075
:10522000ADF80920ADF80D30079A036800921024FC
:105230008DF8084002AAD3F8F0400723A04704B035
:1052400010BD1FB5ADF80B30BDF81830ADF8092012
:10525000ADF80D30079A0368009208248DF80840D5
:1052600002AAD3F8F0400723A04704B010BD0123E1
:1052700080F83C31704700001FB5ADF80A309DF84A
:1052800018308DF80C30084B8DF8092001208DF86E
:105290000800186802AA03680092D3F89440042218
:1052A0000523A04704B010BD9036060001299CBF1D
:1052B00000EB8100C0F8542170471FB5ADF80D20F8
:1052C000026800930A248DF80C400323D2F8F040C2
:1052D00003AAA04704B010BD70B500231C2505FB30
:1052E0000304B4F8B0608E4204D00133052BF6D12C
:1052F000002002E084F8C820012070BD70B50023B2
:105300001C2505FB03F40619B6F8B0608E4204D0E4
:105310000133052BF5D1002010E004F1B301014465
:10532000941D11F8015F04F801599442F9D11C222F
:1053300002FB0303012093F8B330237070BD00001B
:105340002DE9F843DFF8648000F1B40400F5A0759E
:1053500000264FF6FF774FF0170934F8041CB942C6
:105360001BD0D8F800000368D3F898309847A0B94C
:1053700004F8020C04F8010C2060A080C4F80600B8
:105380006081206924F8047C0136A4F80C9010B1E7
:1053900003685B689847002323611C34AC42DCD16E
:1053A000002ED4BF00200120BDE8F883903606000F
:1053B00010B5054B03600446D0F8400108B145F034
:1053C000F5FD204610BD00BFF034060010B50446C0
:1053D000FFF7EEFF20464FF4AE713DF0FBFF204695
:1053E00010BD00002DE9F0431D4B1D688BB0062356
:1053F0000F460421002490462A680097CDE9071340
:10540000C821CDE905410C21CDE90331CDE9018465
:105410000646D2F854902346302260212846C847D9
:10542000D8B906F05FFC044606F05CFCD6F8AC3058
:10543000001B98422B680DD21B6928469847336899
:1054400042465B6B3946304698470028ECD00BB09B
:10545000BDE8F083DB6D284698470020F7E700BFE2
:1054600090360600F8B503689B6A044698474FF6E5
:10547000FF73984206461ED0104B1D682B680146EC
:10548000D3F898302846984706F02CFC074606F0DB
:1054900029FCD4F8AC30C01B98420CD22B682846AB
:1054A0001B699847236831469B6B20469847002824
:1054B000EDD10120F8BD0020FCE700BF90360600CA
:1054C0002DE9F3410546089CA5F848111078C5F868
:1054D0004C41013085F84A01002085F850011948F7
:1054E000066830680092D0F89480DBB2042230461F
:1054F0000F46C04724B306F0F5FB044606F0F2FB66
:10550000D5F8AC30001B984214D2336830461B6982
:1055100098472B6839469B6B2846984750B195F8B9
:1055200050010028EAD04FF6FF73A5F8483102B0C9
:10553000BDE8F0814FF6FF73A5F848310020F6E78B
:105540002046F4E7903606002DE9F04799460368B7
:105550009B6A044698474FF6FF739842074604D16A
:105560004FF000084046BDE8F08723680146D3F8B5
:10557000E0302046984780460028F1D000251C23C3
:1055800003FB054ABAF8B060BE4233D1DAF8C43042
:105590003BB910203DF006FF0746FFF705FCCAF8AF
:1055A000C4701C2303FB0545D5F8C450002DD7D08B
:1055B0002846B9F1000F21D1FFF73AFC23682A46AB
:1055C000D3F8E47031464B462046B8470028C7D090
:1055D00023682A46D3F8E830314620469847002809
:1055E000BED023682A4631462046D3F8EC30BDE8C9
:1055F000F04718470135052DC2D1B1E7FFF7F5FB9C
:10560000002782465745D9DA39462846FFF7EFFB8F
:10561000FFF70CFA494646F093FB0028A2D0013769
:10562000F0E7F0B5C5B004469DF82851ADF80D205F
:105630000F4612218DF80C102A4619460DF10F0065
:1056400045F0F8FF23684B9A0092D3F8F06003AA64
:10565000EB1C39462046B04745B0F0BDF0B5C5B0AB
:1056600004469DF82851ADF80D200F4652218DF8C3
:105670000C102A4619460DF10F0045F0DBFF236898
:1056800000220092D3F8F06003AAEB1C39462046B2
:10569000B04745B0F0BD70B500241C2505FB04F3F0
:1056A000C618B6F8B0608E4204D00134052CF5D18E
:1056B000002006E0C9331488C452C11893788B7057
:1056C000012070BD10B500F1C90300F2551033F888
:1056D000194C8C4201BF1C8814809C7894701C3338
:1056E0008342F4D1002010BD70B500241C2505FBB9
:1056F00004F3C618B6F8B0608E4204D00134052C0D
:10570000F5D1002006E0B4331844036813608388A1
:105710009380012070BDF0B500241C2606FB04F325
:10572000C518B5F8B0708F4204D00134052CF5D1FE
:10573000002009E0BA330344591E11F8010F20B9C3
:10574000C1F1BF004019F8D1F0BD196811609B8804
:1057500093800120F8E700002DE9F04196B09846CB
:105760001C9E044600271C234FF6FF7C03FB07F515
:105770006019B0F8B0E0E64505D00137052FF5D146
:1057800016B0BDE8F081172380F8B220A0F8C03031
:10579000A0F8B01080F8B38005F1B4033168E1508F
:1057A000E218B388938001A9731E052213F8010F34
:1057B000505412F1FF32F9D20D4B1868BA35036814
:1057C0006719D3F890303A46984708B96051B880C5
:1057D000D4F85441002CD3D03246414603A8FEF7FA
:1057E00043FA03A8A04703A8FEF786F9C8E700BF5D
:1057F000903606002DE9F04106460F46904600F12E
:10580000B405002415F8013CBB420CD106224146E8
:10581000284645F0DDFE30B91C2303FB0464B4F8D0
:10582000B000BDE8F0810134052C05F11C05E9D17B
:105830004FF6FF70F5E72DE9F04106460F4690461A
:1058400000F1B405002415F8013CBB420CD106223E
:105850004146284645F0BCFE30B91C2303FB0464D6
:10586000D4F8C400BDE8F0810134052C05F11C0515
:10587000E9D10020F6E738B54FF6FF7204460B4633
:105880000020B3F8B050954203D093F8B250012DE8
:1058900008D00130052803F11C03F2D12046FEF7A1
:1058A000D3F90AE01C23434303F1B4020B440A4436
:1058B000204693F8B310FEF7D7F9204638BD98B5C7
:1058C000B0F8A820D31DEC46DB08ACEBC30300AF57
:1058D0009D460368D3F88C406B46A047003018BF44
:1058E0000120BD4698BD00002DE9F04F87B002AF02
:1058F0001D46DFF890A0B96000F18C039146044684
:10590000FB600026B4F8B080C7F804D04FF6FF73F0
:1059100098452BD0B4F8C030DA1D6946D208A1EB07
:10592000C202033B95469BB2ADB29D424FF01B02B3
:1059300028BF1D468DF808203A89ADF80920494650
:105940002A460DF10B0045F075FEDAF800000DF166
:10595000080B0268CDF800B0EB1CD2F894B0DBB2B3
:1059600004224146D847D7F804D00136FB681C34DE
:105970009C42C7D1002ED4BF002001201437BD4661
:10598000BDE8F08F903606002DE9F04F87B002AFEA
:10599000C7E900211E4600F5A073054600F1B404D6
:1059A000BB604FF0000934F804ACC7F80CD04FF6D8
:1059B000FF739A4542D0A389DA1D6946D208A1EB4C
:1059C000C202033B95469BB2B6B29E424FF01D0207
:1059D00028BF1E468DF80820BA88ADF8092039681E
:1059E00032460DF10B0045F025FE002385F83C31D1
:1059F000194BD3F800800DF1080BD8F80020CDF832
:105A000000B0F31CD2F894B0DBB2042251464046F9
:105A1000D84795F83C316BB9D8F8003040461B693F
:105A200098472B6814F8011C5B6B22462846984760
:105A30000028EED1D7F80CD009F10109BB681C345D
:105A4000A342B0D1B9F1000FD4BF00200120143718
:105A5000BD46BDE8F08F00BF903606002DE9F04F3F
:105A600089B002AF042BFA603A6CC7F808D0C7E9D6
:105A7000041014880AD0036804220092D3F8DC5082
:105A80002346A8471C37BD46BDE8F08FFB680733A7
:105A90006A46DB08A2EBC3039D460DF10808052307
:105AA0008DF80830002388F80130484B013CD3F8CA
:105AB00000A0A4B20225DAF800305046DB6998470E
:105AC000844258D23B6C5B88A34254D9DAF8003048
:105AD00021461B6A5046984703689B68834698474F
